:100000003EC000006FC000006DC000006BC000006B
:1000100069C0000067C0000065C0000063C0000048
:1000200061C000005FC000005DC000005BC0000058
:1000300059C0000057C0000055C0000003C30000B5
:1000400051C000004FC000004DC000004BC0000078
:1000500049C0000047C0000045C0000043C0000088
:1000600022C300003FC000003DC000003BC00000B4
:1000700039C0000037C0000035C00000F90311246A
:100080001FBECFEFCDBFDFE3DEBF80914000809386
:100090004000811105C098ED21E094BF20934100FC
:1000A0008CBB18E3A0E0B8E3E7EBF1E102C00590F8
:1000B0000D92A230B107D9F729E3A2E0B8E301C05D
:1000C0001D92A536B207E1F710E0CFE3D0E004C0FF
:1000D0002197FE010E94BD08CE33D107C9F7C6D3D0
:1000E0000C94CA088DCF0F931F93CF93DF93EC012D
:1000F0008B01E0913338F0913438838180FD06C064
:1001000080E1DF91CF911F910F9108959881A0E830
:10011000BEE330E04E7F5581752F737089F31197E0
:1001200089F485E0723021F084E0713009F481E1D6
:100130003881391B3883211102C0882311F393E0E1
:100140009483DFCF53FD20C0733029F3311105C0F4
:100150004783A0E8BEE331E0DECF56FFDCCF54FF9B
:1001600008C082E031FFE4CF83E09111E1CF80E06D
:10017000DFCF9923E1F3D8018D918D0180879150D4
:100180003260A0E8BEE3C7CF82E1BBCFE091503937
:10019000F09151398E179F0798F5309157393323D5
:1001A00061F0639FB0011124672F349FA0011124D7
:1001B000452F329F90011124232F30915D39E0911A
:1001C0005839F091593950915A3935131AC0DC0118
:1001D000AA0FBB1F8A0F9B1F8E0F9F1FE0915A39DA
:1001E000E80FF92FF11D6083E0915B39E80FF92FDB
:1001F000F11D408330915C39830F911DFC012083F8
:100200000895880F991F880F991F8E0F9F1FFC015B
:10021000E30FF11D1082E2CF9FB7F89488E080933E
:10022000840A80918E0A81FFFCCF80918D0AE09133
:10023000A20AF091A30A20911F38309120384091F2
:100240002138509122389FBF80FF07C0E730F10569
:1002500020F42F5F3F4F4F4F5F4FAEEFB1E083D79A
:100260006E0F7F1F811D911D660F771F881F991FBD
:1002700008950F931F93CF93DF93CDB7DEB72797E2
:10028000CDBFDEBF809152399091533989839A83D3
:100290008091583990915939892B09F465C0809122
:1002A000563982310CF060C0B7DF00915E39109191
:1002B0005F392091603930916139AB01BC01401B3D
:1002C000510B620B730B8091543990915539B0E00A
:1002D000A0E0481759076A077B0730F3F894A0910C
:1002E0005839B0915939FD0131968C918F83A09185
:1002F0006239B09163399C9180916439982B9E83C7
:100300009C91809589238D838D818C8388E08B835C
:100310005E816D814F813B812C8189819A815C93C3
:10032000000047FD252F3A952C930000262F39F029
:10033000441F00C000006C9300C000C0F0CF38E044
:1003400041916C9300C0019751F74F833B832C83FD
:1003500089839A83789460DF60935E3970935F3904
:1003600080936039909361392796CDBFDEBFDF91CE
:10037000CF911F910F910895DC011896ED91FC919A
:1003800084818860848308959C012B5E3F4FDC014B
:100390005396EC91539752968C91E81730F4E20FF4
:1003A000F32FF11D808190E008958FEF9FEF089566
:1003B000FC01DC01559693898289981740F4A90FB6
:1003C000B11D2C919F5F938B822F90E008958FEF4A
:1003D0009FEF0895FC0182899389891B990B0895E9
:1003E000FC01A289A03258F4A80FB92FB11D55966F
:1003F0006C9382898F5F828B81E090E0089590E01A
:1004000080E00895BF92CF92DF92EF92FF920F9318
:100410001F93CF93DF937C016A01B62EEB010C2F63
:100420000B1910E00C151D0528F46991C701D8DFE0
:10043000892BA9F7C801DF91CF911F910F91FF90F0
:10044000EF90DF90CF90BF90089590E080E0089506
:10045000CF93C62F9091363891FF07C090E39093C9
:100460003C3810923D3810923E38682F8BE298E36A
:10047000B7DF6C2F8BE298E3B3DF21E040913C388B
:1004800060E478E38DE398E32EDE91E0811190E063
:10049000892FCF910895FF920F931F93CF93DF93EE
:1004A000182FF62E342F422F822F800F9927991F55
:1004B000EC01C30FD11DE0910338F0E0E856FE4691
:1004C000E081EC171D0690F43E9FC0011124BE018F
:1004D000CAD5362F2E9FC0011124BE01C4D5462F88
:1004E0000E9FC0011124BE01BED5062FF0FE03C031
:1004F00097E0911B192F8F2D880F880F880F810F80
:10050000202F632F90E0DF91CF911F910F91FF90EB
:100510003DCEE0E5F9E34281538170E060E0808503
:10052000918531C68091080486FB882780F908955B
:1005300080910006882379F085E08093060681E0AB
:100540008093080680910B0680FFFCCF80911006F7
:1005500090911106089589EF92E80895EF92FF9225
:100560000F931F93CF93DF93062FE72E142F9091B5
:10057000363891FF07C090E390933C3810923D3895
:1005800010923E38682F8BE298E32ADF20E04091FA
:100590003C3860E478E38DE398E3A5DD81114AC03F
:1005A00090E390933C3810933D3810923E38E091A0
:1005B0003338F0913438912F20E83EE3A0E4B8E3DB
:1005C00062E071E34581542F537091F0215031095D
:1005D00079F043FD12C05330A9F3811105C0778330
:1005E00020E83EE381E0EECF46FF18C083E084833D
:1005F00080913D38891B80933D3880913D38181398
:1006000019C0F02EC02FDE2D8BE298E3D1DE899346
:100610008C2F8F198117C0F381E00DC047FFD2CF17
:1006200020852D93915021F0648320E83EE3CACFCA
:1006300087E0DDCF80E0DF91CF911F910F91FF9098
:10064000EF9008958F9381E080938D0A8FB78F93F9
:10065000EF93FF93EFE1F8E39F9368948FEF0FC060
:10066000E894848195818C5E9F4F84839583885E16
:10067000934010F08FEF03C0848395838EEF9081B9
:10068000981B919390819F4F919390819F4F91934D
:1006900090819F4F919326F39F91FF91EF918F91BE
:1006A0008FBF8F9118951F920F920FB60F92112442
:1006B0001F932F933F934F935F936F937F938F93EA
:1006C0009F93AF93BF93CF93DF93EF93FF93C0912B
:1006D0002938D0912A382097B9F1A885B9851B9679
:1006E0001C911B9716FF53C08B8583FF09C0877F22
:1006F0008B87EF85F889309719F08A8990E0099502
:1007000010FF3BC08A8981110BC080910238811192
:1007100007C0809150008093023881708093500010
:100720001A8A1B8AE885F9858585898B11FF20C087
:10073000ED85FE85309709F009958A8981111BC0E6
:1007400086E0E885F9858287FF91EF91DF91CF916F
:10075000BF91AF919F918F917F916F915F914F91D9
:100760003F912F911F910F900FBE0F901F901895E2
:100770008B8588608B8783E0E4CF809102388093FB
:100780005000109202381A8A1B8A82E0DACF17FFD3
:100790002EC09E012B5E3F4F11FF1AC08A85182381
:1007A00021F088E08A871A8AF0CF8C898F5F8C8B42
:1007B00088E18A87EB898A89E817A8F7E20FF32F87
:1007C000F11D80811D968C938B898F5F8B8BD3CF8E
:1007D0001D968C91EA89E03250F4E20FF32FF11D5F
:1007E00080838A898F5F8A8B803229F6A9CF80E047
:1007F000A8CFEBE2F8E31282138288EE93E0A0E048
:10080000B0E084839583A683B78389EA91E98083E6
:100810009183E0932938F0932A3880E198E080872B
:100820009187E0E5F9E382E390E084839583178282
:1008300080E698E38087918716861786108A118A4A
:1008400081E085878287138682E0848780EF90E04D
:100850008283938380E590E080839183168284E095
:1008600094E0828B938B80E1848B0895CF93DF9308
:10087000CDB7DEB72997CDBFDEBF88ED90E084BF4E
:1008800090936100E0E0F6E083E582838AE085836F
:1008900080E2838381E08083109202028093030AC6
:1008A0009EEF9093260A9093270A9BE09093000A6C
:1008B000E0E8FAE02DEF31E026A737A7118290E8B3
:1008C0009283848781E18083789490E190930104FE
:1008D00080911404877F8093140490930604809180
:1008E000000484FD08C09FB7F89480911404877FAA
:1008F000809314049FBF8091010A8F7D8093010A29
:1009000080E480930204809116048860809316042A
:1009100009DE91E0811190E09093133880910006F8
:100920008B7F809300068091363881FD2AC082FD3E
:1009300028C08091010284FF3EC086E080930604B7
:1009400080913638826080933638E0913338F09168
:10095000343881E083838583E0913338F0913438F3
:100960009091363891FF0DC09681973451F02381D4
:10097000138297E4968390819D7F9083238320FD4B
:1009800085831F8241E0BE01695F7F4F8FE0E6DD16
:100990008823A9F08F81843491F481E080930D380D
:1009A0006CE081E255DD882319F063E480E250DDDC
:1009B00080930D3806C083E080932604C1CF109247
:1009C0000D38A7DD56DC3EE0A32E48EE242E43E092
:1009D000342E412C512C8FB7F894C0902338D090EE
:1009E0002438E0902538F09026388FBF80911E384B
:1009F000882309F111DC8B0128EEC22E23E0D22ED0
:100A0000E12CF12C09DC601B710B683E734068F02F
:100A1000C114D104E104F104F1F221E0C21AD108B9
:100A2000E108F10808511C4FEDCFC114D104E104D5
:100A3000F10441F7D0CF76DD91E0811101C090E063
:100A400020910138921751F090930138C0920938E3
:100A5000D0920A38E0920B38F0920C384091093865
:100A600050910A3860910B3870910C3897018601CB
:100A7000041B150B260B370BB901A8014A31510590
:100A80006105710590F020910038291771F090935D
:100A90000038811193C0C0920538D0920638E09298
:100AA0000738F0920838109204388091003881118C
:100AB00025C080910438811121C080910538909122
:100AC0000638A0910738B0910838A7019601281B75
:100AD000390B4A0B5B0BDA01C9018D3B9240A10532
:100AE000B10560F08091033890E0019663E070E01A
:100AF000CED28093033881E08093043880911A38F5
:100B000090911B38A0911C38B0911D389701860137
:100B1000081B190B2A0B3B0BD901C8018897A105AB
:100B2000B10508F458CFC0921A38D0921B38E09221
:100B30001C38F0921D38809118389091193869E16D
:100B400070E091D2892B09F055C0F2DC9C01A6E13E
:100B5000B5E3F4D2A2019101ADD228343D4008F0B2
:100B600041C08091143890911538A0911638B091F9
:100B70001738892B8A2B8B2B41F4C0921438D092D2
:100B80001538E0921638F092173880911438909109
:100B90001538A0911638B0911738C81AD90AEA0A40
:100BA000FB0A29EBC2162BE0D206E104F10410F196
:100BB00081E080931E38ADDC5CDB0DCF8091043882
:100BC000811173CF80911338882319F01092133854
:100BD0006CCF8091123890E00196837099278093B2
:100BE000123863CF109214381092153810921638BC
:100BF0001092173880911338882309F47EC089DC5D
:100C000020E040E068E090E080E0C0DA20E048E0EA
:100C100060E081E090E0BADA28E040E060E082E065
:100C200090E0B4DA12E0912F917020910D38812F6D
:100C3000880F880F880F222309F43BC0911137C019
:100C400094E0890F20E046E060E090E09FDA1F5FCB
:100C5000163049F76DDC9C01A6E1B5E36FD2A20125
:100C6000910128D2890180E1F82E92E0E92E8E2DA3
:100C7000817004373EE0130740F1811124C086E003
:100C80008F0D20E046E060E090E080DAE39458E0E9
:100C9000F50E86E0E812EBCFECDA809118389091EF
:100CA00019380196809318389093193894CE93E0B0
:100CB000C8CF911106C094E0890F20E040E068E0C1
:100CC000C4CF93E0F9CF81E0DBCF08344DE01407C7
:100CD00050F0811106C086E08F0D20E043E066E011
:100CE000D3CF81E0F9CF811106C086E08F0D20E0DF
:100CF00040E068E0C9CF81E0F9CF809112388130BF
:100D000009F413C140F1823009F448C1E12C10E02C
:100D10008BE2C82E93E0B92ED12CF12C809118389B
:100D2000880F8E0D8D0D6C2D85D1382F892F6B2D51
:100D30008DD1082F332309F452C1353009F44FC146
:100D40004A2D481B313009F44BC1482F343009F487
:100D500047C140E045C180910D38811196C0809116
:100D600018389091193868E770E07DD19C012E51B8
:100D700031098C33910520F02AE530E0281B390B2E
:100D800013E0220F331F1A95E1F7E0911038F0912C
:100D9000113800910E3810910F38C9018E1B9F0B2E
:100DA00067E070E074D1C80117FD039695958795AB
:100DB000959587957B01E81AF90AE00EF11EE092FD
:100DC0000E38F0920F38F7FE03C023E0E20EF11C5C
:100DD000F594E794F594E794EE0EFF1EE092103838
:100DE000F0921138A701440F551F48875987C70152
:100DF000F3E0880F991FFA95E1F7E81AF90A912CA8
:100E0000812C10E08091183890911938880D991D27
:100E100067E170E028D122E130E0059710F030E082
:100E200020E06701F7FE03C05FEFC51AD50AD5942D
:100E3000C7948AEFD81AC20ED31E90E080E0B12C7E
:100E4000FC01F3953F0104E125E08C159D0544F478
:100E500001E12BE043E0EC15FD051CF400E020E08F
:100E600040E06B2D812F17DBB394C301FAE0BF1272
:100E7000E7CF1F5F07E0800E911C28853985E20EC1
:100E8000F31E183009F0BECF07CF46E0BE016F5FFA
:100E90007F4F88E263DB209110383091113888232E
:100EA00009F473CF29813A818B819C81AC01092E91
:100EB000000C660B770B40345F416105710510F43F
:100EC00080E49FE16C01990FEE08FF08D701C6018D
:100ED000815C904EAF4FBF4F8F339F41A105B1054D
:100EE00038F4B0ECCB2EB0EEDB2EEE24EA94FE2CE0
:100EF000A0E0BFEF1DD1A7019601FED0203C0EEF70
:100F000030070FEF4007500724F420EC3EEF4FEF7F
:100F10005FEF213411E03107410551050CF435CF65
:100F200020E431E040E050E030CF809118388F71FC
:100F3000833028F087504DE0B42E823010F450E218
:100F4000B52E2BE9C22E21E9D22E10E030E8832EF7
:100F5000912CF12CE12C8E2DF601208130E0A401A2
:100F60000E2C02C0559547950A94E2F724233523A9
:100F700040E0232B09F04B2D00E020E0612F8BDABD
:100F8000FFEFEF1AFF0A08E0E016F10421F71F5FF8
:100F90002FEFC21AD20A1A30E1F67ECEBADAE0900A
:100FA0001838F090193825E22E9DC0012F9D900D24
:100FB000112400E510E0B80156D024E044E068E0D8
:100FC000E5D823E12E9DC0012F9D900D11244F9651
:100FD000B80149D027E046E063E0D8D85DCE4EE0C6
:100FE0009FEF930F2EE0923040F0282F332329F00B
:100FF0002A2D281B333009F020E09DEF930F92300B
:1010000040F0323039F00A2D081B353019F000E07D
:1010100001C00EE0612F8F2D3EDAF39437E1D30E3D
:1010200048E0F4127BCE1F5F5BE0E50E1A3009F05A
:1010300073CE32CE991B79E004C0991F961708F041
:10104000961B881F7A95C9F78095089587FB082E0F
:10105000062687FD819567FD6195ECDF0EF491957D
:1010600007FC81950895AA1BBB1B51E107C0AA1F6D
:10107000BB1FA617B70710F0A61BB70B881F991F39
:101080005A95A9F780959095BC01CD01089597FBDD
:10109000072E16F4009406D077FD08D0E4DF07FC95
:1010A00005D03EF4909581959F4F08957095619578
:1010B0007F4F0895A1E21A2EAA1BBB1BFD010DC094
:1010C000AA1FBB1FEE1FFF1FA217B307E407F507F8
:1010D00020F0A21BB30BE40BF50B661F771F881FD4
:1010E000991F1A9469F760957095809590959B016A
:1010F000AC01BD01CF010895052E97FB16F40094B5
:101100000FD057FD05D0D6DF07FC02D046F408C04B
:1011100050954095309521953F4F4F4F5F4F089523
:1011200090958095709561957F4F8F4F9F4F089553
:1011300005D0332312F48A1B9B0B10C0A29FB00171
:10114000B39FC001A39F700D811D1124911DB29FFB
:10115000700D811D1124911D0895F0DFB7FF0895D2
:10116000821B930B0895EADFA59F900DB49F900D0D
:10117000A49F800D911D11240895EE0FFF1F05906F
:10118000F491E02D0994DC0101C06D934150504071
:08119000E0F70895F894FFCF89
:101198000A10180066FFFFFF7E3C180000000000E0
:0F11A80000F00102022502BC01EA01D801C401D6
:0211B700010134
:00000001FF
